:020000040000FA
:100000000C9434000C9451000C9451000C9448034F
:100010000C9451000C9451000C9451000C9451001C
:100020000C9451000C9451000C9451000C94230337
:100030000C9451000C9451000C9451000C945100FC
:100040000C9451000C9451000C9451000C945100EC
:100050000C9451000C9451000C9451000C945100DC
:100060000C9451000C94510011241FBECFEFD8E026
:10007000DEBFCDBF12E0A0E0B1E0E8E3FEE002C0E9
:1000800005900D92AA38B107D9F723E0AAE8B2E0AB
:1000900001C01D92A836B207E1F70E94A8030C9494
:1000A0001A070C94000086BD85E085BDA89BFECF95
:1000B000A89A15BC089590938500809384008FEFD3
:1000C00086BB85E080938100B09BFECFB09A1092F2
:1000D000810008958230C9F18530D1F52AE08FE0A2
:1000E00010926703109266031092620310926303EA
:1000F0001092640310926503082E000C990B409136
:1001000066035091670348175907CCF310926703B1
:10011000109266036091620370916303809164039F
:100120009091650397FF07C09095809570956195B4
:100130007F4F8F4F9F4F022E000C330B440B550BFC
:100140000E94BF06CA01B901089524E086E0C8CF25
:1001500021E082E0C5CF8F929F92AF92BF92CF9263
:10016000DF92EF92FF92CF93DF93C82F862ED42F8A
:100170001092A3021092A4021092A5021092A6025D
:100180001092A7021092A8021092A9021092AA023D
:100190001092AB02109281001092850010928400A0
:1001A0008091680081608093680080916B0080621C
:1001B00080936B0080916F00826080936F008091CC
:1001C000A7028815E4F3809168008E7F8093680011
:1001D00080916B008F7D80936B0080916F008D7F8D
:1001E00080936F006091A3027091A4028091A50298
:1001F0009091A602082C000C9908AA08BB08A5013A
:1002000094010E94BF0669017A01D1110AC0F7FE6C
:1002100008C0F094E094D094C094C11CD11CE11C9F
:10022000F11CCC23E9F0C0916003D0916103CC0FA5
:10023000DD1FCC0FDD1FC455DD4FC701B601A50181
:1002400094010E94BF06288339834A835B8380918F
:100250006003909161030196909361038093600322
:10026000C701B601DF91CF91FF90EF90DF90CF9063
:10027000BF90AF909F908F9008951092850010923C
:1002800084001092810008959091C00095FFFCCFEA
:100290008093C60008954F925F926F927F928F92E3
:1002A0009F92AF92BF92EF92FF920F931F93CF93C3
:1002B000DF93CDB7DEB72C970FB6F894DEBF0FBE35
:1002C000CDBF4B015C018E010F5F1F4F8114910464
:1002D000A10480E8B80631F598E3998384E38A8322
:1002E00026E32B8323E32C839D838E8397E39F83D5
:1002F000888781E3898782E38A878DE28B871C86E2
:10030000F8017F01E01AF10A81918111FACFE00E24
:10031000F11E0E151F05C1F1F70182917F010E94A8
:100320004401F7CFCE010D96F8011192E817F907B5
:10033000E1F7D501C401B7FE07C088279927DC0182
:1003400088199909AA09BB09BC01CD0178012AE0E5
:10035000422E512C612C712CA30192010E94BF06E8
:10036000605DF70161937F01E01BF10BB901CA01E8
:10037000611571058105910579F7B7FEC1CFE00FD1
:10038000F11F8DE28083BCCF2C960FB6F894DEBFB0
:100390000FBECDBFDF91CF911F910F91FF90EF90D6
:1003A000BF90AF909F908F907F906F905F904F9095
:1003B0000895BF92CF92DF92EF92FF920F931F9317
:1003C000CF93DF93C82F8091C1008F7E8093C100AF
:1003D0008DE791EE0E945B00789481E08093A20209
:1003E000DFE0C1113BC0C1EF8EE20E944401C15069
:1003F000C09366006091A20240E080E00E94AB00E2
:10040000C13E90F7683E7340810591056CF71091ED
:10041000660085E08093A20294E8C92E93E0D92E6D
:10042000E12CF12CD0E08EE20E9444010091A20266
:10043000BD2EBC0ECB2DCD1BD43108F049C0C093CE
:10044000660040E0602F80E00E94AB006C157D05E7
:100450008E059F050CF47AC0DF5FECCF8EE20E9420
:100460004401DF5FD09366006091A20240E080E02B
:100470000E94AB00D03290F3683E73408105910535
:100480006CF71091660085E08093A20284E8C82E84
:1004900083E0D82EE12CF12CC0E08EE20E944401D2
:1004A0000091A202BD2EBC1ADB2DDC0FC43108F076
:1004B00050C0D093660040E0602F80E00E94AB0007
:1004C0006C157D058E059F050CF44DC0CF5FECCFFC
:1004D0001093660084E6C81AD108E108F10809F013
:1004E000A2CF6091A20240E080E00E94AB006B01CD
:1004F0007C01809166008093A1020E943D01809161
:1005000070008E7F8093700080916F008E7F80934B
:100510006F00C701B6010E944B0181E40E944401B3
:10052000612F70E090E080E00E944B018091C1005B
:1005300080618093C100F894DF91CF911F910F915A
:10054000FF90EF90DF90CF90BF90089510916600DC
:10055000C1CF1093660084E6C81AD108E108F108FB
:1005600009F09BCFBECF10916600F5CF0F931F937C
:10057000CF93DF93EC018C0108531F4F899188239F
:1005800029F00E944401C017D107C1F7DF91CF9134
:100590001F910F9108958091C00087FFFCCF80913B
:1005A000C6000895CF93DF9380E091E00E94B602E9
:1005B000C0918F02D0919002CE0101970E94A906AE
:1005C000682F70E090E080E00E944B0189E00E947B
:1005D0004401CE0102970E94A906682F70E090E0C6
:1005E00080E00E944B018BE191E00E94B602CE01B7
:1005F00003970E94A906682F70E090E080E00E94B7
:100600004B018CE291E0DF91CF910C94B602CF9335
:10061000C82F80918F02909190026C2F01970E94B9
:10062000B10680918F02909190026C2F02970E94E8
:10063000B10680918F029091900260918C02039795
:10064000CF910C94B1061F920F920FB60F92112406
:100650008F939F93AF93BF938091A8029091A9022B
:10066000A091AA02B091AB029F5FAF4FBF4F8093A2
:10067000A8029093A902A093AA02B093AB02BF91E3
:10068000AF919F918F910F900FBE0F901F90189573
:100690001F920F920FB60F9211242F933F934F93F7
:1006A0005F936F937F938F939F93AF93BF9380914B
:1006B000810081111EC01092A8021092A90210920E
:1006C000AA021092AB02109285001092840082E080
:1006D00080938100BF91AF919F918F917F916F9196
:1006E0005F914F913F912F910F900FBE0F901F90F0
:1006F0001895109281008091A7028F5F8093A702C6
:100700008091A3029091A402A091A502B091A602AB
:100710004091A8025091A9026091AA027091AB0287
:100720002091840030918500840F951FA61FB71F6C
:100730009058A109B109820F931FA11DB11D80938B
:10074000A3029093A402A093A502B093A602C2CFE5
:10075000A89584B7877F84BF80916000886180936B
:1007600060001092600080917C00806480937C0027
:1007700085B78F7E85BF14B817B81AB88FEF85B9C3
:1007800088B98BB98EE391E09093920280939102A5
:1007900083E491E0909394028093930288E491E043
:1007A00090939602809395028EE491E09093980244
:1007B0008093970284E591E090939A028093990246
:1007C00088E591E090939C0280939B028CE591E0F8
:1007D00090939E0280939D028CEF9FE10E94A90658
:1007E000C82F8BEF9FE10E94A906C43909F450C0BD
:1007F000C8F4C23939F1C339E9F182EF9CEF0E94A4
:100800005B001092C1001092C50089E18093C40082
:1008100082E08093C00088E18093C10086E08093ED
:10082000C20059C0C53909F441C0C63931F720E0CA
:1008300038E03093900220938F028930F1F684E003
:1008400090E013C020E031E03093900220938F02BB
:10085000873049F08A3011F0853079F610928E0297
:1008600010928D02CACF86E090E090938E02809322
:100870008D02C3CF20E032E03093900220938F02AC
:100880008A3019F08F3009F0B8CF81E090E0EDCFD9
:1008900020E032E03093900220938F02863019F0EE
:1008A0008B3009F0AACF82E090E0DFCF20E034E087
:1008B0003093900220938F028F3009F4DEC0843190
:1008C00009F4DBC0823009F0DEC085E090E090934F
:1008D0008E0280938D028FEF90E090938900809339
:1008E00088008091660080938C0280E00E94D9018C
:1008F000809166008F5F80936600809170008160B8
:100900008093700080916F00816080936F000E94DF
:100910003D01789440E062E080E00E94AB004B0132
:100920005C018091660082508093660040E062E046
:1009300080E00E94AB006B017C010E943D01809130
:1009400070008E7F8093700080916F008E7F809307
:100950006F00F894809166008F5F8093660089EE47
:10096000881683E09806A104B1043CF4E9EECE16A3
:10097000E3E0DE06E104F1043CF080E691E00E9451
:10098000B60281E00E94D9018EE391E09093920239
:100990008093910283E491E0909394028093930278
:1009A00088E491E090939602809395028EE491E022
:1009B000909398028093970284E591E090939A0235
:1009C0008093990288E591E090939C0280939B022A
:1009D0008CE591E090939E0280939D028CEF9FE1C5
:1009E0000E94A906C82F8BEF9FE10E94A906C43977
:1009F00009F486C008F04BC0C23909F45AC0C339A3
:100A000009F470C081E991E00E94B602E0918D0284
:100A1000F0918E02EE0FFF1FEF56FD4F8081918106
:100A20000E94B6028091A1020E94070389EA91E028
:100A30000E94B6026091A10270E090E080E00E9406
:100A40004B018DEB91E00E94B6020E94CB028837E9
:100A500009F077C00E94D2028EE692E00E94B602B0
:100A60000E94CB0288E199E00FB6F894A895809394
:100A700060000FBE90936000FFCF23E030E0309322
:100A80008E0220938D02823009F425CFB6CEC5396F
:100A900009F444C0C63909F0B5CF20E038E03093FE
:100AA000900220938F02893009F0ACCF84E090E06F
:100AB00014C020E031E03093900220938F02873001
:100AC00051F08A3019F0853009F09CCF10928E02D7
:100AD00010928D0297CF86E090E090938E028093E3
:100AE0008D0290CF20E032E03093900220938F026D
:100AF0008A3019F08F3009F085CF81E090E0EDCF9A
:100B000020E032E03093900220938F02863019F07B
:100B10008B3009F077CF82E090E0DFCF20E034E047
:100B20003093900220938F028F3041F0843131F066
:100B3000823009F067CF85E090E0CFCF83E090E08E
:100B4000CCCF8091C1008F7E8093C1008BEE91E06D
:100B50000E94B6028CED0E945300789410926103BB
:100B60001092600385E08093A20280916600845118
:100B700080936600C091660009E210E06091A202D5
:100B800041E081E00E94AB00809166008F5F80931E
:100B900066000150110991F78091A10280936600CF
:100BA0000E943D01809170008E7F80937000809143
:100BB0006F008E7F80936F0087E892E00E94B602FC
:100BC00081E192E00E94B6020CEA12E0D9E2DC0F69
:100BD000812C80E8982EA12CB12C6C2F70E090E035
:100BE00080E00E944B01CF5F89E00E944401F80140
:100BF000C190D190E190F1908F01C701B6010E94A0
:100C00004B0189E00E944401A4E6B0E0A7019601EF
:100C10000E94DE06A50194010E94BF06CA01B90127
:100C20000E944B0185E20E94440187E892E00E9405
:100C3000B60284E60E94530084E60E945300CD135E
:100C4000CCCF81E292E00E94B6028091C100806127
:100C50008093C1000E94CB02C82FD0EDD80FDA30AC
:100C6000C0F487E892E00E94B6028C2F0E944401F3
:100C70001AE00E94CB028D3011F08A30E9F481E451
:100C80009FE12091C00027FD14C00197D1F7CD2F1F
:100C900002C08837F9F6C0938B02C837C1F480913F
:100CA000A10280938B02F89480918B020E9407032B
:100CB000D1CE8091C600EBCFC0EDC80FCA30C8F6C8
:100CC0000E944401D19FC00D1124DC2FD2CF80910E
:100CD000700081608093700080916F0081608093CC
:100CE0006F000E943D0180918B028093660085E039
:100CF0008093A2028091A2020E946A008091A202C7
:100D00000E946A008091A2020E946A006B017C012D
:100D10000E943D01809170008E7F809370008091D1
:100D20006F008E7F80936F00F7EDCF16F6E0DF0641
:100D3000E104F1040CF4B7CF8091A1028093660026
:100D40008091A10280938B028CE492E00E94B60213
:100D5000AACFF999FECF92BD81BDF89A992780B5A7
:100D60000895262FF999FECF1FBA92BD81BD20BDEF
:100D70000FB6F894FA9AF99A0FBE01960895052EC7
:100D800097FB1EF400940E94D60657FD07D00E94E0
:100D9000E90607FC03D04EF40C94D6065095409516
:100DA000309521953F4F4F4F5F4F08959095809517
:100DB000709561957F4F8F4F9F4F08950E940B074D
:100DC000A59F900DB49F900DA49F800D911D11249F
:100DD0000895A1E21A2EAA1BBB1BFD010DC0AA1F7C
:100DE000BB1FEE1FFF1FA217B307E407F50720F094
:100DF000A21BB30BE40BF50B661F771F881F991F0F
:100E00001A9469F760957095809590959B01AC0157
:100E1000BD01CF010895A29FB001B39FC001A39F60
:100E2000700D811D1124911DB29F700D811D112423
:100E3000911D0895F894FFCF0D0A56616C75657386
:100E400020736176656420746F20454550524F4D84
:100E500020200009557365722076616C75650D0A56
:100E600009090900090944656661756C7420766199
:100E70006C75650D0A0034382F500038382F50003B
:100E80003136382F50003332382F5000363434008A
:100E900033324100343441000D0A506F6F722072BA
:100EA0006573756C743A20536561726368696E6727
:100EB00020666F7220616C7465726E61746976650C
:100EC0002076616C75650D0A000D0A0D0A43616C90
:100ED0006962726174696E672041746D6567612033
:100EE000000D0A4E6577204F534343414C207661F5
:100EF0006C756520000D0A50726573732027782782
:100F000020746F2066696E697368206F7220414F8C
:100F10004B20666F72206D616E75616C2063616C31
:100F20000D0A000D0A4D616E75616C2063616C3AAB
:100F300020706C656173652077616974203520735A
:100F400065636F6E64730D0A004F534343414C0950
:100F5000204572726F720D0A000D0A456E7465723B
:100F6000206E657720757365722063616C207661F1
:100F70006C7565206F72207820746F2065736361D3
:100F800070652E00094368616E67652072656A6549
:100F9000637465643A206572726F7220746F6F209B
:100FA0006772656174000D0A416C6C20646F6E6538
:100FB0003A20414B20746F207265706561742E0D6C
:020FC0000A0025
:107E0000112484B714BE81FFF0D085E080938100F7
:107E100082E08093C00088E18093C10086E0809377
:107E2000C20080E18093C4008EE0C9D0259A86E02C
:107E300020E33CEF91E0309385002093840096BBD3
:107E4000B09BFECF1D9AA8958150A9F7CC24DD24C4
:107E500088248394B5E0AB2EA1E19A2EF3E0BF2EE7
:107E6000A2D0813461F49FD0082FAFD0023811F036
:107E7000013811F484E001C083E08DD089C08234E0
:107E800011F484E103C0853419F485E0A6D080C0E4
:107E9000853579F488D0E82EFF2485D0082F10E0AE
:107EA000102F00270E291F29000F111F8ED06801E7
:107EB0006FC0863521F484E090D080E0DECF843638
:107EC00009F040C070D06FD0082F6DD080E0C81688
:107ED00080E7D80618F4F601B7BEE895C0E0D1E017
:107EE00062D089930C17E1F7F0E0CF16F0E7DF06D8
:107EF00018F0F601B7BEE89568D007B600FCFDCFD4
:107F0000A601A0E0B1E02C9130E011968C91119780
:107F100090E0982F8827822B932B1296FA010C0160
:107F200087BEE89511244E5F5F4FF1E0A038BF0790
:107F300051F7F601A7BEE89507B600FCFDCF97BE46
:107F4000E89526C08437B1F42ED02DD0F82E2BD052
:107F50003CD0F601EF2C8F010F5F1F4F84911BD097
:107F6000EA94F801C1F70894C11CD11CFA94CF0C13
:107F7000D11C0EC0853739F428D08EE10CD085E9AC
:107F80000AD08FE07ACF813511F488E018D01DD067
:107F900080E101D065CF982F8091C00085FFFCCF94
:107FA0009093C60008958091C00087FFFCCF809118
:107FB000C00084FD01C0A8958091C6000895E0E648
:107FC000F0E098E1908380830895EDDF803219F02E
:107FD00088E0F5DFFFCF84E1DECF1F93182FE3DFCA
:107FE0001150E9F7F2DF1F91089580E0E8DFEE27F6
:047FF000FF270994CA
:027FFE00040479
:00000001FF
