:020000040000FA
:100000000C9434000C9451000C9451000C94510049
:100010000C9451000C9451000C9451000C9451001C
:100020000C9451000C94DA020C9451000C94510081
:100030000C9451000C94C9020C9451000C94510082
:100040000C9451000C9451000C9451000C945100EC
:100050000C9451000C9451000C9451000C945100DC
:100060000C9451000C94510011241FBECFEFD8E026
:10007000DEBFCDBF12E0A0E0B1E0ECE7FDE002C0E2
:1000800005900D92AA38B107D9F723E0AAE8B2E0AB
:1000900001C01D92AF35B207E1F70E9455030C94E1
:1000A000BC060C94000086BD85E085BDA89BFECFF4
:1000B000A89A15BC089590938500809384008FEFD3
:1000C00086BB85E080938100B09BFECFB09A1092F2
:1000D00081000895CF93C82F24E086E0623031F08C
:1000E00021E082E0653011F42AE08FE010925C0399
:1000F00010925B0310925703109258031092590309
:1001000010925A03082E000C990B60915B037091BA
:100110005C0368177907CCF310925C0310925B03C1
:1001200060915703709158038091590390915A033D
:10013000411109C097FF07C0909580957095619512
:100140007F4F8F4F9F4F022E000C330B440B550BEC
:100150000E947B06CC23B9F0E0913F03F09140036D
:10016000EE0FFF1FEE0FFF1FE557FD4F208331837A
:100170004283538380913F03909140030196909373
:10018000400380933F03CA01B901CF91089581E0F4
:100190008093B1008091B60080FDFCCF81E0809318
:1001A00081000895109285001092840010928100C1
:1001B0001092B1008091B60080FDFCCF1092B0008B
:1001C0008091B60081FDFCCF1092B2008091B60004
:1001D00084FDFCCF08959091C00095FFFCCF8093E3
:1001E000C60008954F925F926F927F928F929F9276
:1001F000AF92BF92EF92FF920F931F93CF93DF9333
:10020000CDB7DEB72C970FB6F894DEBF0FBECDBFCB
:100210004B015C018E010F5F1F4F81149104A104FB
:1002200080E8B80631F598E3998384E38A8326E36E
:100230002B8323E32C839D838E8397E39F8388877F
:1002400081E3898782E38A878DE28B871C86F801A8
:100250007F01E01AF10A81918111FACFE00EF11EBF
:100260000E151F05C1F1F70182917F010E94EB007D
:10027000F7CFCE010D96F8011192E817F907E1F7D3
:10028000D501C401B7FE07C088279927DC0188196A
:100290009909AA09BB09BC01CD0178012AE0422EC7
:1002A000512C612C712CA30192010E947B06605D90
:1002B000F70161937F01E01BF10BB901CA016115E0
:1002C00071058105910579F7B7FEC1CFE00FF11FE8
:1002D0008DE28083BCCF2C960FB6F894DEBF0FBEA4
:1002E000CDBFDF91CF911F910F91FF90EF90BF9005
:1002F000AF909F908F907F906F905F904F900895F8
:10030000BF92CF92DF92EF92FF920F931F93CF9302
:10031000DF93C82F8091C1008F7E8093C1008DE74D
:1003200091EE0E945B00789481E080935D03809160
:10033000700081608093700080916F008160809375
:100340006F000E94D2000E94C700DFE0C1113BC0D5
:10035000D1EF8EE20E94EB00D150D0936600609105
:100360005D0340E080E00E946A00D13E90F7683E65
:100370007340810591056CF71091660085E08093CC
:100380005D0394E8C92E93E0D92EE12CF12CC0E056
:100390008EE20E94EB0000915D03BC2EBD0EDB2DB2
:1003A000DC1BC43108F049C0D093660040E0602FE8
:1003B00080E00E946A006C157D058E059F050CF497
:1003C0006BC0CF5FECCF8EE20E94EB00DF5FD0937B
:1003D000660060915D0340E080E00E946A00D032D8
:1003E00090F3683E7340810591056CF710916600AB
:1003F00085E080935D0384E8C82E83E0D82EE12C4D
:10040000F12CC0E08EE20E94EB0000915D03BD2E56
:10041000BC1ADB2DDC0FC43108F041C0D09366005C
:1004200040E0602F80E00E946A006C157D058E051B
:100430009F050CF43EC0CF5FECCF1093660084E6BE
:10044000C81AD108E108F10809F0A2CF60915D0354
:1004500040E080E00E946A0080916600809356032D
:100460000E94D200809170008E7F809370008091F6
:100470006F008E7F80936F008091C10080618093B8
:10048000C100F894DF91CF911F910F91FF90EF90F1
:10049000DF90CF90BF90089510916600D0CF109359
:1004A000660084E6C81AD108E108F10809F0AACF6D
:1004B000CDCF10916600F5CF0F931F93CF93DF93AD
:1004C000EC018C0108531F4F8991882329F00E9469
:1004D000EB00C017D107C1F7DF91CF911F910F91AA
:1004E00008958091C00087FFFCCF8091C6000895D9
:1004F000CF93DF9380E091E00E945C02C0914403BF
:10050000D0914503CE0101970E946506682F70E0E7
:1005100090E080E00E94F20089E00E94EB00CE01B2
:1005200002970E946506682F70E090E080E00E94CC
:10053000F2008BE191E00E945C02CE0103970E94E1
:100540006506682F70E090E080E00E94F2008CE287
:1005500091E0DF91CF910C945C02CF93C82F8091F2
:100560004403909145036C2F01970E946D06809182
:100570004403909145036C2F02970E946D06809171
:10058000440390914503609141030397CF910C94EC
:100590006D061F920F920FB60F9211248F938091C8
:1005A0005E038F5F80935E038F910F900FBE0F905D
:1005B0001F9018951F920F920FB60F921124CF9291
:1005C000DF92EF92FF922F933F934F935F936F933E
:1005D0007F938F939F93AF93BF931092810020914D
:1005E000840030918500109285001092840081E093
:1005F0008093810080915D0340915B0350915C0387
:10060000082E000C990B48175907F4F410925E035A
:1006100080915B0390915C03019690935C038093BF
:100620005B03BF91AF919F918F917F916F915F918C
:100630004F913F912F91FF90EF90DF90CF900F90CF
:100640000FBE0F901F90189580915E0340E050E020
:1006500061E070E0813049F040E050E062E070E03D
:10066000823019F040E050E0BA01C0905703D090BA
:100670005803E0905903F0905A03C901B0E0A0E09C
:100680008452944FA109B109840F951FA61FB71F6B
:100690008C0D9D1DAE1DBF1D809357039093580375
:1006A000A0935903B0935A03B1CFA89584B7877F1D
:1006B00084BF809160008861809360001092600028
:1006C00080917C00806480937C0085B78F7E85BF9D
:1006D00014B817B81AB88FEF85B988B98BB98EE3FB
:1006E00091E0909347038093460383E491E09093D5
:1006F00049038093480388E491E090934B038093EF
:100700004A038EE491E090934D0380934C0384E57B
:1007100091E090934F0380934E0388E591E090938E
:100720005103809350038CE591E0909353038093A1
:1007300052038CEF9FE10E946506C82F8BEF9FE16B
:100740000E946506C43909F450C0C8F4C23939F1B1
:10075000C339E9F182EF9CEF0E945B001092C10067
:100760001092C50089E18093C40082E08093C000AC
:1007700088E18093C10086E08093C20059C0C539EA
:1007800009F441C0C63931F720E038E03093450321
:10079000209344038930F1F684E090E013C020E018
:1007A00031E03093450320934403873049F08A3089
:1007B00011F0853079F61092430310924203CACFAC
:1007C00086E090E09093430380934203C3CF20E000
:1007D00032E030934503209344038A3019F08F3080
:1007E00009F0B8CF81E090E0EDCF20E032E0309327
:1007F000450320934403863019F08B3009F0AACFCB
:1008000082E090E0DFCF20E034E030934503209396
:1008100044038F3009F4DDC0843109F4DAC082303A
:1008200009F0DDC085E090E090934303809342039C
:1008300080E28093B600809166008093410380E05F
:100840000E948001809166008F5F80936600809196
:10085000700081608093700080916F008160809350
:100860006F000E94D2000E94C700789440E062E0CE
:1008700080E00E946A004B015C018091660082501A
:100880008093660040E062E080E00E946A006B01B5
:100890007C010E94D200809170008E7F8093700056
:1008A00080916F008E7F80936F00F8948091660036
:1008B0008F5F8093660089EE881683E09806A10416
:1008C000B1043CF4E9EECE16E3E0DE06E104F10407
:1008D0003CF080E691E00E945C0281E00E94800191
:1008E0008EE391E0909347038093460383E491E085
:1008F000909349038093480388E491E090934B03DD
:1009000080934A038EE491E090934D0380934C03CF
:1009100084E591E090934F0380934E0388E591E046
:1009200090935103809350038CE591E0909353038F
:10093000809352038CEF9FE10E946506C82F8BEFD6
:100940009FE10E946506C43909F486C008F04BC0D7
:10095000C23909F45AC0C33909F470C081E991E081
:100960000E945C02E0914203F0914303EE0FFF1FEF
:10097000EA5BFC4F808191810E945C02809156036A
:100980000E94AD0289EA91E00E945C0260915603E8
:1009900070E090E080E00E94F2008DEB91E00E9418
:1009A0005C020E947102883709F077C00E947802C9
:1009B0008EE692E00E945C020E94710288E199E05A
:1009C0000FB6F894A895809360000FBE90936000D6
:1009D000FFCF23E030E03093430320934203823083
:1009E00009F426CFB7CEC53909F444C0C63909F099
:1009F000B5CF20E038E0309345032093440389309D
:100A000009F0ACCF84E090E014C020E031E03093F6
:100A1000450320934403873051F08A3019F0853024
:100A200009F09CCF109243031092420397CF86E0C7
:100A300090E0909343038093420390CF20E032E014
:100A400030934503209344038A3019F08F3009F026
:100A500085CF81E090E0EDCF20E032E03093450398
:100A600020934403863019F08B3009F077CF82E071
:100A700090E0DFCF20E034E030934503209344033F
:100A80008F3041F0843131F0823009F067CF85E05A
:100A900090E0CFCF83E090E0CCCF8091C1008F7EFB
:100AA0008093C1008BEE91E00E945C028CED0E946D
:100AB000530078941092400310923F0385E0809396
:100AC0005D038091700081608093700080916F0061
:100AD000816080936F000E94D2000E94C7008091C5
:100AE0006600845180936600C091660009E210E0C0
:100AF00060915D0341E081E00E946A0080916600A0
:100B00008F5F809366000150110991F78091560321
:100B1000809366000E94D200809170008E7F809347
:100B2000700080916F008E7F80936F0087E892E065
:100B30000E945C0281E192E00E945C020BE812E0FC
:100B4000D9E2DC0F81E7882E82E0982EA12CB12C0F
:100B50006C2F70E090E080E00E94F200CF5F89E0AF
:100B60000E94EB00F801C190D190E190F1908F01CB
:100B7000C701B6010E94F20089E00E94EB00C701A4
:100B8000B601A50194010E947B06CA01B9010E9429
:100B9000F20085E20E94EB0087E892E00E945C028E
:100BA00084E60E945300CD13D3CF81E292E00E94ED
:100BB0005C028091C10080618093C1000E9471023B
:100BC000C82FD0EDD80FDA30C0F487E892E00E9449
:100BD0005C028C2F0E94EB001AE00E9471028D30A3
:100BE00011F08A30E9F481E49FE12091C00027FDF3
:100BF00014C00197D1F7CD2F02C08837F9F6C09302
:100C00008A02C837C1F48091560380938A02F8940F
:100C100080918A020E94AD02C9CE8091C600EBCFBE
:100C2000C0EDC80FCA30C8F60E94EB00D19FC00DBE
:100C30001124DC2FD2CF80917000816080937000EE
:100C400080916F00816080936F000E94D2000E94AB
:100C5000C70080918A028093660085E080935D03DF
:100C600060915D0340E080E00E946A0060915D0356
:100C700040E080E00E946A0060915D0340E080E017
:100C80000E946A006B017C010E94D200809170007A
:100C90008E7F8093700080916F008E7F80936F00B5
:100CA000F7EDCF16F6E0DF06E104F1040CF4AFCF68
:100CB00080915603809366008091560380938A0248
:100CC0008CE492E00E945C02A2CFF999FECF92BD23
:100CD00081BDF89A992780B50895262FF999FECFFE
:100CE0001FBA92BD81BD20BD0FB6F894FA9AF99A49
:100CF0000FBE01960895052E97FB1EF400940E94E6
:100D0000920657FD07D00E949A0607FC03D04EF4C6
:100D10000C94920650954095309521953F4F4F4F3A
:100D20005F4F089590958095709561957F4F8F4F97
:100D30009F4F0895A1E21A2EAA1BBB1BFD010DC0F7
:100D4000AA1FBB1FEE1FFF1FA217B307E407F5077B
:100D500020F0A21BB30BE40BF50B661F771F881F57
:100D6000991F1A9469F760957095809590959B01ED
:100D7000AC01BD01CF010895F894FFCF0D0A566173
:100D80006C75657320736176656420746F204545CA
:100D900050524F4D20200009557365722076616CCA
:100DA00075650D0A09090900090944656661756CD4
:100DB000742076616C75650D0A0034382F50003848
:100DC000382F50003136382F50003332382F500032
:100DD0003634340033324100343441000D0A506F50
:100DE0006F7220726573756C743A2053656172631B
:100DF00068696E6720666F7220616C7465726E61DF
:100E0000746976652076616C75650D0A000D0A0DB2
:100E10000A43616C6962726174696E672041746D26
:100E200065676120000D0A4E6577204F53434341AB
:100E30004C2076616C756520000D0A5072657373E5
:100E40002027782720746F2066696E697368206F89
:100E50007220414F4B20666F72206D616E75616C20
:100E60002063616C0D0A000D0A4D616E75616C2086
:100E700063616C3A20706C65617365207761697499
:100E80002035207365636F6E64730D0A004F534302
:100E900043414C09204572726F720D0A000D0A45DC
:100EA0006E746572206E657720757365722063615C
:100EB0006C2076616C7565206F72207820746F20CD
:100EC0006573636170652E00094368616E67652014
:100ED00072656A65637465643A206572726F722028
:100EE000746F6F206772656174000D0A416C6C202D
:100EF000646F6E653A20414B20746F207265706597
:060F000061742E0D0A00D1
:107E0000112484B714BE81FFF0D085E080938100F7
:107E100082E08093C00088E18093C10086E0809377
:107E2000C20080E18093C4008EE0C9D0259A86E02C
:107E300020E33CEF91E0309385002093840096BBD3
:107E4000B09BFECF1D9AA8958150A9F7CC24DD24C4
:107E500088248394B5E0AB2EA1E19A2EF3E0BF2EE7
:107E6000A2D0813461F49FD0082FAFD0023811F036
:107E7000013811F484E001C083E08DD089C08234E0
:107E800011F484E103C0853419F485E0A6D080C0E4
:107E9000853579F488D0E82EFF2485D0082F10E0AE
:107EA000102F00270E291F29000F111F8ED06801E7
:107EB0006FC0863521F484E090D080E0DECF843638
:107EC00009F040C070D06FD0082F6DD080E0C81688
:107ED00080E7D80618F4F601B7BEE895C0E0D1E017
:107EE00062D089930C17E1F7F0E0CF16F0E7DF06D8
:107EF00018F0F601B7BEE89568D007B600FCFDCFD4
:107F0000A601A0E0B1E02C9130E011968C91119780
:107F100090E0982F8827822B932B1296FA010C0160
:107F200087BEE89511244E5F5F4FF1E0A038BF0790
:107F300051F7F601A7BEE89507B600FCFDCF97BE46
:107F4000E89526C08437B1F42ED02DD0F82E2BD052
:107F50003CD0F601EF2C8F010F5F1F4F84911BD097
:107F6000EA94F801C1F70894C11CD11CFA94CF0C13
:107F7000D11C0EC0853739F428D08EE10CD085E9AC
:107F80000AD08FE07ACF813511F488E018D01DD067
:107F900080E101D065CF982F8091C00085FFFCCF94
:107FA0009093C60008958091C00087FFFCCF809118
:107FB000C00084FD01C0A8958091C6000895E0E648
:107FC000F0E098E1908380830895EDDF803219F02E
:107FD00088E0F5DFFFCF84E1DECF1F93182FE3DFCA
:107FE0001150E9F7F2DF1F91089580E0E8DFEE27F6
:047FF000FF270994CA
:027FFE00040479
:00000001FF
