:020000040000FA
:100000000C9434000C9451000C9451000C946C012D
:100010000C9451000C9451000C9451000C9451001C
:100020000C9451000C9451000C9451000C9451000C
:100030000C9451000C9451000C9451000C945100FC
:100040000C9451000C9451000C9451000C945100EC
:100050000C9451000C9451000C9451000C945100DC
:100060000C9451000C94510011241FBECFEFD4E02A
:10007000DEBFCDBF11E0A0E0B1E0ECECF6E002C0E5
:1000800005900D92AA3BB107D9F721E0AAEBB1E0A8
:1000900001C01D92A83DB207E1F70E94ED010C944A
:1000A00064030C940000282F1092D4011092D50103
:1000B0001092D6011092D7011092D3011092CF0165
:1000C0001092D0011092D1011092D20110928100B1
:1000D0001092850010928400909168009160909336
:1000E000680090916B00906290936B009091D301A7
:1000F0009217E4F3909168009E7F9093680090912E
:100100006B009F7D90936B006091D4017091D5013D
:100110008091D6019091D701022E000C330B440B35
:10012000550B0E94230357FF07C05095409530950B
:1001300021953F4F4F4F5F4FCA01B90108959091EC
:10014000C00095FFFCCF8093C6000895BF92CF9268
:10015000DF92EF92FF920F931F93CF93DF939091D3
:10016000C1009F7E9093C100789492E09093CC015F
:10017000DFE0811137C0D1EF8EE20E949F00D150A5
:10018000D09366008091CC010E945300D13EA0F72D
:10019000683E7340810591057CF71091660082E00E
:1001A0008093CC0194E8C92E93E0D92EE12CF12C58
:1001B000C0E08EE20E949F000091CC01BC2EBD0EDB
:1001C000DB2DDC1BC43108F041C0D0936600802FCA
:1001D0000E9453006C157D058E059F050CF457C0D9
:1001E000CF5FEECF8EE20E949F00DF5FD09366006C
:1001F0008091CC010E945300D032A0F3683E73403E
:10020000810591057CF71091660082E08093CC0116
:1002100084E8C82E83E0D82EE12CF12CC0E08EE2D9
:100220000E949F000091CC01BD2EBC1ADB2DDC0F7B
:10023000C43180F5D0936600802F0E9453006C1566
:100240007D058E059F0584F1CF5FF0CF109366008A
:1002500084E6C81AD108E108F10809F0AACF809114
:10026000CC010E945300809166008093CB01809165
:10027000C10080618093C100F894DF91CF911F91FC
:100280000F91FF90EF90DF90CF90BF900895109165
:100290006600DECF1093660084E6C81AD108E10834
:1002A000F10809F0BCCFDBCF10916600F5CF0F93BA
:1002B0001F93CF93DF93EC018C0108531F4F89915B
:1002C000882329F00E949F00C017D107C1F7DF9152
:1002D000CF911F910F9108951F920F920FB60F9219
:1002E00011242F933F934F935F936F937F938F933B
:1002F0009F93AF93BF938091810081111EC0109294
:10030000CF011092D0011092D1011092D20110921F
:1003100085001092840082E080938100BF91AF91AC
:100320009F918F917F916F915F914F913F912F910D
:100330000F900FBE0F901F90189510928100809122
:10034000D3018F5F8093D3018091D4019091D50127
:10035000A091D601B091D7014091CF015091D00129
:100360006091D1017091D20120918400309185007B
:10037000840F951FA61FB71F9058A109B109820FBE
:10038000931FA11DB11D8093D4019093D501A0931B
:10039000D601B093D701C2CF8CEF8093850082EF56
:1003A000809384008FEF86BB85E080938100B09BB3
:1003B000FECFB09A109281001092C1001092C50039
:1003C00089E18093C40082E08093C00088E180933B
:1003D000C10086E08093C2000895A89584B7877F06
:1003E00084BF8091600088618093600010926000FB
:1003F00080917C00806480937C0085B78F7E85BF70
:1004000014B817B81AB88FEF85B988B98BB980E0DE
:1004100091E09093C8018093C70186E091E09093AA
:10042000CA018093C9018CEF9FE10E940D03C82F80
:100430008BEF9FE10E940D03C43909F4A5C0C539B3
:1004400009F4B2C00E94CC010091C5011091C6010F
:10045000C80102970E940D03C82F80EF8C0F803EC9
:1004600008F0B6C0C80101970E940D03C813B0C0C0
:10047000C093C2018CE091E00E9457018091660018
:100480008093C10180E00E94A600809166008F5F8A
:1004900080936600789482E00E9453006B017C0197
:1004A0008091660082508093660082E00E94530033
:1004B000F894209166002F5F2093660025EFC21606
:1004C00021E0D206E104F1042CF4653F714081057E
:1004D00091053CF088E491E00E94570181E00E9480
:1004E000A60080E091E09093C8018093C70186E068
:1004F00091E09093CA018093C9018CEF9FE10E9423
:100500000D03C82F8BEF9FE10E940D03C43909F43E
:1005100062C0C53909F46FC089E791E00E945701B4
:10052000E091C301F091C401EE0FFF1FE953FE4FAC
:10053000808191810E945701C091CB018091C501BA
:100540009091C6016C2F01970E9415038091C501FF
:100550009091C6016C2F02970E9415038091C501EE
:100560009091C6016091C10103970E94150381E932
:1005700091E00E9457018091C201882321F085EA11
:1005800091E00E945701FFCF20E032E03093C60196
:100590002093C501863019F08B3009F053CF1092AB
:1005A000C4011092C3014ECF20E034E03093C60165
:1005B0002093C5018F3011F0843131F421E030E017
:1005C0003093C4012093C301823009F43DCF3ACF68
:1005D0001092C2014FCF20E032E03093C601209349
:1005E000C501863019F08B3009F096CF1092C40106
:1005F0001092C30191CF20E034E03093C6012093E4
:10060000C5018F3019F0843109F086CF81E090E088
:100610009093C4018093C3017FCFF999FECF92BD1F
:1006200081BDF89A992780B50895262FF999FECFB4
:100630001FBA92BD81BD20BD0FB6F894FA9AF99AFF
:100640000FBE01960895052E97FB1EF400940E949C
:100650003A0357FD07D00E94420307FC03D04EF433
:100660000C943A0350954095309521953F4F4F4F4C
:100670005F4F089590958095709561957F4F8F4F4E
:100680009F4F0895A1E21A2EAA1BBB1BFD010DC0AE
:10069000AA1FBB1FEE1FFF1FA217B307E407F50732
:1006A00020F0A21BB30BE40BF50B661F771F881F0E
:1006B000991F1A9469F760957095809590959B01A4
:1006C000AC01BD01CF010895F894FFCF3136382F2A
:1006D00050003332382F50000D0A54657374207364
:1006E0007472696E67207072696E746564207573C8
:1006F000696E672064656661756C742063616C3A2D
:10070000202043616E2069742062652072656164F7
:100710003F0D0A000D0A506F6F7220726573756C81
:10072000743A20536561726368696E6720666F7200
:1007300020616C7465726E61746976652076616C97
:1007400075650D0A000D0A0D0A43616C69627261DC
:1007500074696E672041746D65676120000D0A4EF3
:100760006577204F534343414C2076616C7565207B
:10077000000D0A50726576696F7573207573657226
:060780002063616C200003
:103800000C94341C0C94511C0C94511C0C94511CA1
:103810000C94511C0C94511C0C94511C0C94511C74
:103820000C94511C0C94511C0C94511C0C94511C64
:103830000C94511C0C94511C0C94511C0C94511C54
:103840000C94511C0C94511C0C94511C0C94511C44
:103850000C94511C0C94511C0C94511C0C94511C34
:103860000C94511C0C94511C11241FBECFEFD4E0BA
:10387000DEBFCDBF11E0A0E0B1E0E4EAFFE302C0AB
:1038800005900D92A230B107D9F712E0A2E0B1E0A5
:1038900001C01D92AD30B107E1F70E94361D0C94B6
:1038A000D01F0C94001C982F9595959595959595FE
:1038B000905D8F708A307CF0282F295A8091C0004B
:1038C00085FFFCCF9093C6008091C00085FFFCCFA0
:1038D0002093C6000895282F205DF0CF982F809167
:1038E000C00085FFFCCF9093C6000895EF92FF9231
:1038F0000F931F93EE24FF2487018091C00087FD62
:1039000017C00894E11CF11C011D111D81E4E8168B
:1039100082E4F8068FE0080780E0180770F3E09172
:103920000401F091050109958091C00087FFE9CF5E
:103930008091C6001F910F91FF90EF9008950E9413
:10394000761C982F8091C00085FFFCCF9093C60015
:1039500091362CF490330CF09053892F089597559D
:10396000892F08951F930E949F1C182F0E949F1C4F
:103970001295107F810F1F910895882351F0982F81
:1039800091508091C00087FFFCCF8091C6009923A1
:10399000B9F708951F93182F0E94761C803249F0C2
:1039A000809103018F5F809303018530C1F01F91E7
:1039B00008958091C00085FFFCCF84E18093C6000C
:1039C0008091C00085FFFCCF1093C6008091C0009D
:1039D00085FFFCCF80E18093C6001F910895E091A0
:1039E0000401F091050109951F9108950E94761C2C
:1039F000803241F0809103018F5F80930301853015
:103A000081F008958091C00085FFFCCF84E1809310
:103A1000C6008091C00085FFFCCF80E18093C60086
:103A20000895E0910401F09105010995089510921F
:103A30000A028823D1F090E040E951E02D9A28EE67
:103A400033E0FA013197F1F721503040D1F72D984A
:103A500028EE33E0FA013197F1F721503040D1F7E9
:103A60009F5F981758F380930A0208953F924F92F0
:103A70005F926F927F928F929F92AF92BF92CF92FE
:103A8000DF92EF92FF920F931F93CF93DF9300008B
:103A900083E38093C4001092C50088E18093C10045
:103AA00086E08093C2005098589A259A81E00E943F
:103AB000171D44E1F42E3EE1E32E24E9D22E96E0D8
:103AC000C92E80E1B82EAA24A39401E4902E16E515
:103AD000812EB2E57B2EA0E26A2EF9E45F2EE3E5AB
:103AE0004E2E70E5372E0E94761C8033B1F1813363
:103AF00009F441C0803409F479C0813409F48CC0E0
:103B0000823471F1853409F47BC0803531F182351E
:103B100021F1813511F1853509F48DC0863509F41F
:103B20009DC0843609F4AEC0843709F41BC18537C3
:103B300009F485C1863709F47AC0809103018F5F4B
:103B400080930301853079F6E0910401F09105013D
:103B500009950E94761C803351F60E94F61CC3CF53
:103B600093E18091C00087FFFCCF8091C60099232C
:103B7000A1F39150F6CF0E94761C8032F1F680912D
:103B8000C00085FFFCCFF092C6008091C00085FF89
:103B9000FCCF9092C6008091C00085FFFCCF809240
:103BA000C6008091C00085FFFCCF7092C600809156
:103BB000C00085FFFCCF6092C6008091C00085FFE9
:103BC000FCCF5092C6008091C00085FFFCCF409290
:103BD000C6008091C00085FFFCCF3092C600809166
:103BE000C00085FFFCCFB092C6007DCF0E94761C3E
:103BF000863808F4B2CF0E94761C0E94F61C73CF60
:103C000094E08091C00087FFFCCF8091C60099238B
:103C100009F4A3CF9150F5CF0E94761C8038D1F0E3
:103C2000813861F1823809F499C0883979F080E0EF
:103C30000E94CA1C58CF0E94761C809306010E94E5
:103C4000761C809307010E94F61C4DCF83E00E94F2
:103C5000CA1C49CF82E00E94CA1C45CF0E94761C34
:103C6000803309F486C192E08091C00087FFFCCFC9
:103C70008091C6009923D9F29150F6CF81E00E943D
:103C8000CA1C31CF0E94761C809309020E94761CC8
:103C90008093080280910C028E7F80930C020E9418
:103CA000761C853429F480910C02816080930C028B
:103CB0008091080290910902892B89F000E010E0C0
:103CC0000E94761CF801E85FFE4F80830F5F1F4F54
:103CD00080910802909109020817190788F30E9441
:103CE000761C803209F029CF80910C0280FFD1C070
:103CF0004091060150910701440F551F5093070151
:103D000040930601A0910802B09109021097C9F0F2
:103D1000E8E0F1E09A01BD016E0F7F1FF999FECF37
:103D200032BD21BD819180BDFA9AF99A2F5F3F4F34
:103D3000E617F70799F74A0F5B1F50930701409367
:103D400006018091C00085FFFCCFF092C6008091F3
:103D5000C00085FFFCCFB092C600C5CE80E10E94B6
:103D6000CA1CC1CE0E94761C809309020E94761C58
:103D7000809308028091060190910701880F991F96
:103D800090930701809306010E94761C853409F404
:103D90007AC080910C028E7F80930C020E94761C68
:103DA000803209F0A0CE8091C00085FFFCCFF09258
:103DB000C600A0910802B09109021097B9F1809154
:103DC0000C02182F1170082F0270E0910601F0917B
:103DD00007019F012F5F3F4FB90140E050E01123E1
:103DE000B1F4002339F494918091C00085FFFCCF99
:103DF0009093C6004F5F5F4FCB010196F9014A17C0
:103E00005B0780F4BC012F5F3F4F112351F3F999F9
:103E1000FECFF2BDE1BDF89A90B58091C00085FF5C
:103E2000FCCFE6CF70930701609306018091C0003C
:103E300085FDD9CE8091C00085FFF8CFD4CE0E94F9
:103E4000761C803209F079CE8091C00085FFFCCFCE
:103E5000F092C6008091C00085FFFCCFE092C600C2
:103E60008091C00085FFFCCFD092C6008091C00039
:103E700085FFFCCFC092C6008091C00085FFFCCFBB
:103E8000B092C60030CE80910C02816080930C020B
:103E900085CF809107018823880F880B8A21809322
:103EA0000B028091060190910701880F991F909352
:103EB0000701809306018091080280FF09C080916C
:103EC00008029091090201969093090280930802DA
:103ED000F894F999FECF1127E0910601F0910701BE
:103EE000C8E0D1E08091080290910902103091F46D
:103EF0000091570001700130D9F303E0009357009F
:103F0000E8950091570001700130D9F301E1009369
:103F10005700E89509901990009157000170013001
:103F2000D9F301E000935700E8951395103498F009
:103F300011270091570001700130D9F305E000937B
:103F40005700E8950091570001700130D9F301E165
:103F500000935700E8953296029709F0C7CF1030CA
:103F600011F00296E5CF11248091C00085FFE9CEC3
:103F7000ECCE0E94761C0E94761C182F0E94761CA4
:103F8000112351F0113021F086E00E94CA1CABCD04
:103F900084E90E94CA1CA7CD8EE10E94CA1CA3CD51
:063FA000F894FFCF800041
:00000001FF
