:100000000C9434000C9451000C9451000C946C012D
:100010000C9451000C9451000C9451000C9451001C
:100020000C9451000C9451000C9451000C9451000C
:100030000C9451000C9451000C9451000C945100FC
:100040000C9451000C9451000C9451000C945100EC
:100050000C9451000C9451000C9451000C945100DC
:100060000C9451000C94510011241FBECFEFD4E02A
:10007000DEBFCDBF11E0A0E0B1E0ECECF6E002C0E5
:1000800005900D92AA3BB107D9F721E0AAEBB1E0A8
:1000900001C01D92A83DB207E1F70E94ED010C944A
:1000A00064030C940000282F1092D4011092D50103
:1000B0001092D6011092D7011092D3011092CF0165
:1000C0001092D0011092D1011092D20110928100B1
:1000D0001092850010928400909168009160909336
:1000E000680090916B00906290936B009091D301A7
:1000F0009217E4F3909168009E7F9093680090912E
:100100006B009F7D90936B006091D4017091D5013D
:100110008091D6019091D701022E000C330B440B35
:10012000550B0E94230357FF07C05095409530950B
:1001300021953F4F4F4F5F4FCA01B90108959091EC
:10014000C00095FFFCCF8093C6000895BF92CF9268
:10015000DF92EF92FF920F931F93CF93DF939091D3
:10016000C1009F7E9093C100789492E09093CC015F
:10017000DFE0811137C0D1EF8EE20E949F00D150A5
:10018000D09366008091CC010E945300D13EA0F72D
:10019000683E7340810591057CF71091660082E00E
:1001A0008093CC0194E8C92E93E0D92EE12CF12C58
:1001B000C0E08EE20E949F000091CC01BC2EBD0EDB
:1001C000DB2DDC1BC43108F041C0D0936600802FCA
:1001D0000E9453006C157D058E059F050CF457C0D9
:1001E000CF5FEECF8EE20E949F00DF5FD09366006C
:1001F0008091CC010E945300D032A0F3683E73403E
:10020000810591057CF71091660082E08093CC0116
:1002100084E8C82E83E0D82EE12CF12CC0E08EE2D9
:100220000E949F000091CC01BD2EBC1ADB2DDC0F7B
:10023000C43180F5D0936600802F0E9453006C1566
:100240007D058E059F0584F1CF5FF0CF109366008A
:1002500084E6C81AD108E108F10809F0AACF809114
:10026000CC010E945300809166008093CB01809165
:10027000C10080618093C100F894DF91CF911F91FC
:100280000F91FF90EF90DF90CF90BF900895109165
:100290006600DECF1093660084E6C81AD108E10834
:1002A000F10809F0BCCFDBCF10916600F5CF0F93BA
:1002B0001F93CF93DF93EC018C0108531F4F89915B
:1002C000882329F00E949F00C017D107C1F7DF9152
:1002D000CF911F910F9108951F920F920FB60F9219
:1002E00011242F933F934F935F936F937F938F933B
:1002F0009F93AF93BF938091810081111EC0109294
:10030000CF011092D0011092D1011092D20110921F
:1003100085001092840082E080938100BF91AF91AC
:100320009F918F917F916F915F914F913F912F910D
:100330000F900FBE0F901F90189510928100809122
:10034000D3018F5F8093D3018091D4019091D50127
:10035000A091D601B091D7014091CF015091D00129
:100360006091D1017091D20120918400309185007B
:10037000840F951FA61FB71F9058A109B109820FBE
:10038000931FA11DB11D8093D4019093D501A0931B
:10039000D601B093D701C2CF8CEF8093850082EF56
:1003A000809384008FEF86BB85E080938100B09BB3
:1003B000FECFB09A109281001092C1001092C50039
:1003C00089E18093C40082E08093C00088E180933B
:1003D000C10086E08093C2000895A89584B7877F06
:1003E00084BF8091600088618093600010926000FB
:1003F00080917C00806480937C0085B78F7E85BF70
:1004000014B817B81AB88FEF85B988B98BB980E0DE
:1004100091E09093C8018093C70186E091E09093AA
:10042000CA018093C9018CEF9FE10E940D03C82F80
:100430008BEF9FE10E940D03C43909F4A5C0C539B3
:1004400009F4B2C00E94CC010091C5011091C6010F
:10045000C80102970E940D03C82F80EF8C0F803EC9
:1004600008F0B6C0C80101970E940D03C813B0C0C0
:10047000C093C2018CE091E00E9457018091660018
:100480008093C10180E00E94A600809166008F5F8A
:1004900080936600789482E00E9453006B017C0197
:1004A0008091660082508093660082E00E94530033
:1004B000F894209166002F5F2093660025EFC21606
:1004C00021E0D206E104F1042CF4653F714081057E
:1004D00091053CF088E491E00E94570181E00E9480
:1004E000A60080E091E09093C8018093C70186E068
:1004F00091E09093CA018093C9018CEF9FE10E9423
:100500000D03C82F8BEF9FE10E940D03C43909F43E
:1005100062C0C53909F46FC089E791E00E945701B4
:10052000E091C301F091C401EE0FFF1FE953FE4FAC
:10053000808191810E945701C091CB018091C501BA
:100540009091C6016C2F01970E9415038091C501FF
:100550009091C6016C2F02970E9415038091C501EE
:100560009091C6016091C10103970E94150381E932
:1005700091E00E9457018091C201882321F085EA11
:1005800091E00E945701FFCF20E032E03093C60196
:100590002093C501863019F08B3009F053CF1092AB
:1005A000C4011092C3014ECF20E034E03093C60165
:1005B0002093C5018F3011F0843131F421E030E017
:1005C0003093C4012093C301823009F43DCF3ACF68
:1005D0001092C2014FCF20E032E03093C601209349
:1005E000C501863019F08B3009F096CF1092C40106
:1005F0001092C30191CF20E034E03093C6012093E4
:10060000C5018F3019F0843109F086CF81E090E088
:100610009093C4018093C3017FCFF999FECF92BD1F
:1006200081BDF89A992780B50895262FF999FECFB4
:100630001FBA92BD81BD20BD0FB6F894FA9AF99AFF
:100640000FBE01960895052E97FB1EF400940E949C
:100650003A0357FD07D00E94420307FC03D04EF433
:100660000C943A0350954095309521953F4F4F4F4C
:100670005F4F089590958095709561957F4F8F4F4E
:100680009F4F0895A1E21A2EAA1BBB1BFD010DC0AE
:10069000AA1FBB1FEE1FFF1FA217B307E407F50732
:1006A00020F0A21BB30BE40BF50B661F771F881F0E
:1006B000991F1A9469F760957095809590959B01A4
:0C06C000AC01BD01CF010895F894FFCFFC
:1006CC003136382F50003332382F50000D0A546514
:1006DC00737420737472696E67207072696E7465BE
:1006EC0064207573696E672064656661756C74202F
:1006FC0063616C3A202043616E206974206265202E
:10070C00726561643F0D0A000D0A506F6F722072A2
:10071C006573756C743A20536561726368696E67B2
:10072C0020666F7220616C7465726E617469766597
:10073C002076616C75650D0A000D0A0D0A43616C1B
:10074C006962726174696E672041746D65676120BE
:10075C00000D0A4E6577204F534343414C20766180
:10076C006C756520000D0A50726576696F75732083
:0A077C00757365722063616C200044
:00000001FF
