:100000000C9434000C9451000C9451000C94AA02EE
:100010000C9451000C9451000C9451000C9451001C
:100020000C9451000C9451000C9451000C948502D6
:100030000C9451000C9451000C9451000C945100FC
:100040000C9451000C9451000C9451000C945100EC
:100050000C9451000C9451000C9451000C945100DC
:100060000C9451000C94510011241FBECFEFD4E02A
:10007000DEBFCDBF12E0A0E0B1E0EEEBFBE002C0DE
:1000800005900D92A63CB107D9F723E0A6ECB2E0AB
:1000900001C01D92A43AB207E1F70E942B030C9411
:1000A000DD050C94000086BD85E085BDA89BFECFD4
:1000B000A89A15BC0895CF93DF93C82F262FD42F6D
:1000C00010929B0310929C0310929D0310929E032A
:1000D00010929F031092A0031092A1031092A2030A
:1000E0001092A30310928100109285001092840058
:1000F0008091680081608093680080916B008062CD
:1001000080936B0080919F038217E4F380916800D5
:100110008E7F8093680080916B008F7D80936B0051
:1001200060919B0370919C0380919D0390919E032D
:10013000022E000C330B440B550B0E948205D1118B
:1001400009C057FF07C050954095309521953F4F06
:100150004F4F5F4FCC23B9F0E0918203F0918303BE
:10016000EE0FFF1FEE0FFF1FE253FD4F2083318381
:1001700042835383809182039091830301969093ED
:10018000830380938203CA01B901DF91CF9108955F
:100190009091C00095FFFCCF8093C60008954F92C8
:1001A0005F926F927F928F929F92AF92BF92EF92E7
:1001B000FF920F931F93CF93DF93CDB7DEB72C97AA
:1001C0000FB6F894DEBF0FBECDBF4B015C018E01B0
:1001D0000F5F1F4F81149104A10480E8B80631F528
:1001E00098E3998384E38A8326E32B8323E32C8398
:1001F0009D838E8397E39F83888781E3898782E34A
:100200008A878DE28B871C86F8017F01E01AF10A4C
:1002100081918111FACFE00EF11E0E151F05C1F17B
:10022000F70182917F010E94C800F7CFCE010D96A1
:10023000F8011192E817F907E1F7D501C401B7FEFB
:1002400007C088279927DC0188199909AA09BB09E1
:10025000BC01CD0178012AE0422E512C612C712C79
:10026000A30192010E948205605DF70161937F0105
:10027000E01BF10BB901CA016115710581059105FA
:1002800079F7B7FEC1CFE00FF11F8DE28083BCCFBD
:100290002C960FB6F894DEBF0FBECDBFDF91CF9185
:1002A0001F910F91FF90EF90BF90AF909F908F9014
:1002B0007F906F905F904F900895BF92CF92DF92A2
:1002C000EF92FF920F931F93CF93DF939091C10012
:1002D0009F7E9093C100789492E090939A03DFE020
:1002E00081113BC0D1EF8EE20E94C800D150D09363
:1002F000660060919A0340E080E00E945B00D13E7E
:1003000090F7683E7340810591056CF71091660087
:1003100082E080939A0394E8C92E93E0D92EE12CD1
:10032000F12CC0E08EE20E94C80000919A03BC2E1E
:10033000BD0EDB2DDC1BC43108F047C0D093660036
:1003400040E0602F80E00E945B006C157D058E050B
:100350009F050CF45DC0CF5FECCF8EE20E94C80019
:10036000DF5FD093660060919A0340E080E00E94D6
:100370005B00D03290F3683E7340810591056CF7C5
:100380001091660082E080939A0384E8C82E83E08F
:10039000D82EE12CF12CC0E08EE20E94C800009122
:1003A0009A03BD2EBC1ADB2DDC0FC431A0F5D0930F
:1003B000660040E0602F80E00E945B006C157D05C8
:1003C0008E059F0594F1CF5FEECF1093660084E613
:1003D000C81AD108E108F10809F0A4CF60919A0386
:1003E00040E080E00E945B0080916600809399036A
:1003F0008091C10080618093C100F894DF91CF911A
:100400001F910F91FF90EF90DF90CF90BF900895D4
:1004100010916600DCCF1093660084E6C81AD108FC
:10042000E108F10809F0B8CFD9CF10916600F5CFF7
:100430000F931F93CF93DF93EC018C0108531F4F51
:100440008991882329F00E94C800C017D107C1F7FD
:10045000DF91CF911F910F9108958091C00087FF88
:10046000FCCF8091C6000895CF93DF9380E091E0A8
:100470000E941802C0918703D0918803CE01019792
:100480000E946C05682F70E090E080E00E94CF0031
:1004900089E00E94C800CE0102970E946C05682F77
:1004A00070E090E080E00E94CF008BE191E00E943C
:1004B0001802CE0103970E946C05682F70E090E04F
:1004C00080E00E94CF008CE291E0DF91CF910C940C
:1004D0001802CF93C82F80918703909188036C2FC7
:1004E00001970E94740580918703909188036C2F77
:1004F00002970E9474058091870390918803609110
:1005000084030397CF910C9474051F920F920FB63A
:100510000F9211248F939F93AF93BF938091A00369
:100520009091A103A091A203B091A3039F5FAF4F4D
:10053000BF4F8093A0039093A103A093A203B09315
:10054000A303BF91AF919F918F910F900FBE0F901A
:100550001F9018951F920F920FB60F9211242F9390
:100560003F934F935F936F937F938F939F93AF933B
:10057000BF938091810081111EC01092A003109240
:10058000A1031092A2031092A3031092850010926F
:10059000840082E080938100BF91AF919F918F9101
:1005A0007F916F915F914F913F912F910F900FBE6F
:1005B0000F901F9018951092810080919F038F5F7C
:1005C00080939F0380919B0390919C03A0919D0336
:1005D000B0919E034091A0035091A1036091A203AA
:1005E0007091A3032091840030918500840F951FA2
:1005F000A61FB71F9058A109B109820F931FA11D13
:10060000B11D80939B0390939C03A0939D03B09393
:100610009E03C2CF8CEF8093850082EF809384008D
:100620008FEF86BB85E080938100B09BFECFB09AB0
:10063000109281001092C1001092C50089E1809350
:10064000C40082E08093C00088E18093C10086E00E
:100650008093C2000895A89584B7877F84BF809156
:1006600060008861809360001092600080917C003F
:10067000806480937C0085B78F7E85BF14B817B8DF
:100680001AB88FEF85B988B98BB98DE391E0909353
:100690008A038093890382E491E090938C03809392
:1006A0008B0387E491E090938E0380938D038DE418
:1006B00091E09093900380938F0383E591E0909372
:1006C00092038093910387E591E090939403809344
:1006D00093038BE591E090939603809395038CEFC1
:1006E0009FE10E946C05C82F8BEF9FE10E946C0573
:1006F000C43929F0C539A1F00E940A0326C020E0C0
:1007000032E03093880320938703863011F08B30DA
:1007100099F782E090E09093860380938503ECCF75
:1007200020E034E030938803209387038F3009F46E
:10073000C1C0843109F4BEC0823009F0C1C085E077
:1007400090E090938603809385038FEF9FEF9093C3
:100750008900809388008FE591E00E9418028091C3
:1007600066008093840380E00E945D0180916600B2
:100770008F5F80936600789440E062E080E00E94A2
:100780005B006B017C018091660082508093660063
:1007900040E062E080E00E945B00F89420916600F7
:1007A0002F5F2093660025EFC21621E0D206E104F8
:1007B000F1042CF4653F7140810591053CF08BE913
:1007C00091E00E94180281E00E945D018DE391E0BA
:1007D00090938A038093890382E491E090938C0341
:1007E00080938B0387E491E090938E0380938D0335
:1007F0008DE491E09093900380938F0383E591E0E3
:10080000909392038093910387E591E090939403F2
:10081000809393038BE591E09093960380939503E7
:100820008CEF9FE10E946C05C82F8BEF9FE10E9427
:100830006C05C43909F448C0C53909F457C08CECBB
:1008400091E00E941802E0918503F0918603EE0F7B
:10085000FF1FE757FC4F808191810E941802809111
:1008600099030E94690284EE91E00E94180260914F
:10087000990370E090E080E00E94CF0088EF91E063
:100880000E9418020E942D02883709F042C00E947F
:10089000340289EA92E00E9418020E942D0288E147
:1008A00099E00FB6F894A895809360000FBE9093DE
:1008B0006000FFCF23E030E0309386032093850370
:1008C000823009F442CF18CF20E032E03093880321
:1008D00020938703863019F08B3009F0B0CF82E087
:1008E00090E09093860380938503A9CF20E034E0C5
:1008F00030938803209387038F3041F0843131F0A7
:10090000823009F09CCF85E090E0EBCF83E090E06F
:10091000E8CF8091C1008F7E8093C10086E292E093
:100920000E9418028CED0E94530078941092830369
:100930001092820382E080939A0380916600845132
:1009400080936600C091660009E210E060919A030E
:1009500041E081E00E945B00809166008F5F8093A0
:1009600066000150110991F7809199038093660008
:1009700082EC92E00E9418028CE492E00E9418023D
:100980000EEC12E0D9E2DC0F812C80E8982EA12C2D
:10099000B12C6C2F70E090E080E00E94CF00CF5F20
:1009A00089E00E94C800F801C190D190E190F190D7
:1009B0008F01C701B6010E94CF0089E00E94C800E4
:1009C000A4E6B0E0A70196010E94A105A50194014B
:1009D0000E948205CA01B9010E94CF0085E20E94EF
:1009E000C80082EC92E00E94180284E60E94530044
:1009F00084E60E945300CD13CCCF8CE592E00E9498
:100A000018028091C10080618093C1000E942D0274
:100A1000C82FD0EDD80FDA30C0F482EC92E00E94FB
:100A200018028C2F0E94C8001AE00E942D028D30FF
:100A300011F08A30E9F481E49FE12091C00027FDA4
:100A400014C00197D1F7CD2F02C08837F9F6C093B3
:100A5000CD02C837C1F4809199038093CD02F894F8
:100A60008091CD020E94690212CF8091C600EBCF27
:100A7000C0EDC80FCA30C8F60E94C800D19FC00D93
:100A80001124DC2FD2CFC093660085E080939A03B7
:100A900060919A0340E080E00E945B0060919A03BD
:100AA00040E080E00E945B0060919A0340E080E0BB
:100AB0000E945B00673D76408105910584F280913C
:100AC000990380936600809199038093CD0287E813
:100AD00092E00E941802C3CFF999FECF92BD81BD6A
:100AE000F89A992780B50895262FF999FECF1FBA55
:100AF00092BD81BD20BD0FB6F894FA9AF99A0FBE47
:100B000001960895052E97FB1EF400940E94990506
:100B100057FD07D00E94AC0507FC03D04EF40C949F
:100B2000990550954095309521953F4F4F4F5F4F18
:100B3000089590958095709561957F4F8F4F9F4F49
:100B400008950E94CE05A59F900DB49F900DA49F7F
:100B5000800D911D11240895A1E21A2EAA1BBB1B22
:100B6000FD010DC0AA1FBB1FEE1FFF1FA217B30779
:100B7000E407F50720F0A21BB30BE40BF50B661F8F
:100B8000771F881F991F1A9469F760957095809553
:100B900090959B01AC01BD01CF010895A29FB001CA
:100BA000B39FC001A39F700D811D1124911DB29FA1
:0E0BB000700D811D1124911D0895F894FFCF42
:100BBE000D0A56616C7565732073617665642074D9
:100BCE006F20454550524F4D2020000955736572D8
:100BDE002076616C75650D0A090909000944656680
:100BEE0061756C742076616C75650D0A0034382F52
:100BFE00500038382F50003136382F5000333238ED
:100C0E002F50003634340033324100343441000D5D
:100C1E000A5465737420737472696E6720707269FA
:100C2E006E746564207573696E67206465666175A0
:100C3E006C742063616C3A202043616E20697420CD
:100C4E00626520726561643F0D0A000D0A506F6F78
:100C5E007220726573756C743A20536561726368A5
:100C6E00696E6720666F7220616C7465726E617456
:100C7E006976652076616C75650D0A000D0A0D0AA0
:100C8E0043616C6962726174696E672041746D654F
:100C9E00676120000D0A4E6577204F534343414C48
:100CAE002076616C756520000D0A50726573732095
:100CBE0027782720746F2066696E697368206F72BB
:100CCE0020414F4B20666F72206D616E75616C20F6
:100CDE0063616C0D0A000D0A4D616E75616C2063C7
:100CEE00616C3A20706C6561736520776169742060
:100CFE0035207365636F6E64730D0A004F53434363
:100D0E00414C09204572726F720D0A000D0A456E34
:100D1E00746572206E657720757365722063616CE1
:100D2E002076616C7565206F72207820746F206557
:100D3E0073636170652E00094368616E676520728A
:100D4E00656A65637465643A206572726F722074A9
:100D5E006F6F206772656174000D0A416C6C2064C0
:100D6E006F6E653A20414B20746F2072657065611D
:060D7E00742E0D0A0000B6
:00000001FF
