:100000000C9434000C9451000C9451000C94530047
:100010000C9451000C9451000C9451000C9451001C
:100020000C9451000C9451000C9451000C9451000C
:100030000C9451000C9451000C9451000C945100FC
:100040000C9451000C9451000C9451000C945100EC
:100050000C9451000C9451000C9451000C945100DC
:100060000C9451000C94510011241FBECFEFD8E026
:10007000DEBFCDBF11E0A0E0B1E0EEE5F2E002C0EE
:1000800005900D92AC33B107D9F721E0ACE3B1E0B4
:1000900001C01D92A135B207E1F70E94D4000C9473
:1000A0002D010C9400001F920F920FB60F92112495
:1000B0002F933F934F935F936F937F938F939F9370
:1000C000AF93BF938091810081111EC010924D01AA
:1000D00010924E0110924F01109250011092850023
:1000E0001092840082E080938100BF91AF919F9134
:1000F0008F917F916F915F914F913F912F910F90D1
:100100000FBE0F901F9018951092810080914C01A6
:100110008F5F80934C018091480190914901A0919B
:100120004A01B0914B0140914D0150914E016091B7
:100130004F01709150012091840030918500840F0F
:10014000951FA61FB71F9058A109B109820F931FD1
:10015000A11DB11D8093480190934901A0934A01CC
:10016000B0934B01C2CF8CEF8093850082EF8093D8
:1001700084008FEF86BB85E080938100B09BFECF2B
:10018000B09A109281001092C1001092C50089E1CE
:100190008093C40082E08093C00088E18093C10016
:1001A00086E08093C2000895A89584B7877F84BFB6
:1001B000809160008861809360001092600080915F
:1001C0007C00806480937C0085B78F7E85BF14B8E7
:1001D00017B81AB88FEF85B988B98BB98CEF9FE142
:1001E0000E942501C82F8BEF9FE10E942501C43991
:1001F00029F0C53951F00E94B3000FC080E092E0B1
:100200009093470180934601F6CF20E034E030938D
:10021000470120934601823071F7E0E0F1E08191DF
:10022000882351F09091C00095FFFCCF8093C600C9
:1002300081E0E83CF80799F78091C00087FFFCCF88
:100240008091C600813449F7FFCFF999FECF92BD66
:0E02500081BDF89A992780B50895F894FFCFE4
:10025E000D0A5465737420737472696E6720707220
:10026E00696E746564207573696E67206465666176
:10027E00756C742063616C3A202043616E20697442
:0C028E0020626520726561643F0D0A006B
:00000001FF
