:020000040000FA
:100000000C9434000C9451000C9451000C94850213
:100010000C9451000C9451000C9451000C9451001C
:100020000C9451000C9451000C9451000C9451000C
:100030000C9451000C9451000C9451000C945100FC
:100040000C9451000C9451000C9451000C945100EC
:100050000C9451000C9451000C9451000C945100DC
:100060000C9451000C94510011241FBECFEFD4E02A
:10007000DEBFCDBF12E0A0E0B1E0E6EBFBE002C0E6
:1000800005900D92AA3DB107D9F723E0AAEDB2E0A1
:1000900001C01D92A93BB207E1F70E9406030C9430
:1000A000D9050C94000086BD85E085BDA89BFECFD8
:1000B000A89A15BC0895CF93DF93C82F262FD42F6D
:1000C0001092B0031092B1031092B2031092B303D6
:1000D0001092B4031092B5031092B6031092B703B6
:1000E0001092B80310928100109285001092840043
:1000F0008091680081608093680080916B008062CD
:1001000080936B008091B4038217E4F380916800C0
:100110008E7F8093680080916B008F7D80936B0051
:100120006091B0037091B1038091B2039091B303D9
:10013000022E000C330B440B550B0E947E05D1118F
:1001400009C057FF07C050954095309521953F4F06
:100150004F4F5F4FCC23B9F0E0919603F091970396
:10016000EE0FFF1FEE0FFF1FEE51FD4F2083318377
:1001700042835383809196039091970301969093C5
:10018000970380939603CA01B901DF91CF91089537
:100190009091C00095FFFCCF8093C60008954F92C8
:1001A0005F926F927F928F929F92AF92BF92EF92E7
:1001B000FF920F931F93CF93DF93CDB7DEB72C97AA
:1001C0000FB6F894DEBF0FBECDBF4B015C018E01B0
:1001D0000F5F1F4F81149104A10480E8B80631F528
:1001E00098E3998384E38A8326E32B8323E32C8398
:1001F0009D838E8397E39F83888781E3898782E34A
:100200008A878DE28B871C86F8017F01E01AF10A4C
:1002100081918111FACFE00EF11E0E151F05C1F17B
:10022000F70182917F010E94C800F7CFCE010D96A1
:10023000F8011192E817F907E1F7D501C401B7FEFB
:1002400007C088279927DC0188199909AA09BB09E1
:10025000BC01CD0178012AE0422E512C612C712C79
:10026000A30192010E947E05605DF70161937F0109
:10027000E01BF10BB901CA016115710581059105FA
:1002800079F7B7FEC1CFE00FF11F8DE28083BCCFBD
:100290002C960FB6F894DEBF0FBECDBFDF91CF9185
:1002A0001F910F91FF90EF90BF90AF909F908F9014
:1002B0007F906F905F904F900895BF92CF92DF92A2
:1002C000EF92FF920F931F93CF93DF939091C10012
:1002D0009F7E9093C100789492E09093AF03DFE00B
:1002E00081113BC0D1EF8EE20E94C800D150D09363
:1002F00066006091AF0340E080E00E945B00D13E69
:1003000090F7683E7340810591056CF71091660087
:1003100082E08093AF0394E8C92E93E0D92EE12CBC
:10032000F12CC0E08EE20E94C8000091AF03BC2E09
:10033000BD0EDB2DDC1BC43108F047C0D093660036
:1003400040E0602F80E00E945B006C157D058E050B
:100350009F050CF45DC0CF5FECCF8EE20E94C80019
:10036000DF5FD09366006091AF0340E080E00E94C1
:100370005B00D03290F3683E7340810591056CF7C5
:100380001091660082E08093AF0384E8C82E83E07A
:10039000D82EE12CF12CC0E08EE20E94C800009122
:1003A000AF03BD2EBC1ADB2DDC0FC431A0F5D093FA
:1003B000660040E0602F80E00E945B006C157D05C8
:1003C0008E059F0594F1CF5FEECF1093660084E613
:1003D000C81AD108E108F10809F0A4CF6091AF0371
:1003E00040E080E00E945B00809166008093AE0355
:1003F0008091C10080618093C100F894DF91CF911A
:100400001F910F91FF90EF90DF90CF90BF900895D4
:1004100010916600DCCF1093660084E6C81AD108FC
:10042000E108F10809F0B8CFD9CF10916600F5CFF7
:100430000F931F93CF93DF93EC018C0108531F4F51
:100440008991882329F00E94C800C017D107C1F7FD
:10045000DF91CF911F910F9108958091C00087FF88
:10046000FCCF8091C6000895CF93DF9380E091E0A8
:100470000E941802C0919C03D0919D03CE01019768
:100480000E946805682F70E090E080E00E94CF0035
:1004900089E00E94C800CE0102970E946805682F7B
:1004A00070E090E080E00E94CF008BE191E00E943C
:1004B0001802CE0103970E946805682F70E090E053
:1004C00080E00E94CF008CE291E0DF91CF910C940C
:1004D0001802CF93C82F80919C0390919D036C2F9D
:1004E00001970E94700580919C0390919D036C2F51
:1004F00002970E94700580919C0390919D036091EA
:1005000098030397CF910C9470051F920F920FB62A
:100510000F9211242F933F934F935F936F937F9389
:100520008F939F93AF93BF938091810081111EC0E1
:100530001092B5031092B6031092B7031092B8034D
:10054000109285001092840082E080938100BF9118
:10055000AF919F918F917F916F915F914F913F915B
:100560002F910F900FBE0F901F9018951092810041
:100570008091B4038F5F8093B4038091B003909116
:10058000B103A091B203B091B3034091B503509170
:10059000B6036091B7037091B80320918400309145
:1005A0008500840F951FA61FB71F9058A109B10998
:1005B000820F931FA11DB11D8093B0039093B103CF
:1005C000A093B203B093B303C2CF8CEF80938500A6
:1005D00082EF809384008FEF86BB85E0809381005B
:1005E000B09BFECFB09A109281001092C100109281
:1005F000C50089E18093C40082E08093C00088E157
:100600008093C10086E08093C2000895A89584B7C6
:10061000877F84BF80916000886180936000109222
:10062000600080917C00806480937C0085B78F7E21
:1006300085BF14B817B81AB88FEF85B988B98BB9C8
:100640008DE391E090939F0380939E0382E491E079
:100650009093A1038093A00387E491E09093A30378
:100660008093A2038DE491E09093A5038093A4036B
:1006700083E591E09093A7038093A60387E591E03B
:100680009093A9038093A8038BE591E09093AB032B
:100690008093AA038CEF9FE10E946805C82F8BEF1F
:1006A0009FE10E946805C43929F0C539A1F00E9474
:1006B000E50226C020E032E030939D0320939C03A6
:1006C000863011F08B3099F782E090E090939B0395
:1006D00080939A03ECCF20E034E030939D03209385
:1006E0009C038F3009F4DFC0843109F4DCC0823010
:1006F00009F0DFC085E090E090939B0380939A031C
:1007000000919C0310919D03C80102970E94680507
:10071000C82F80EF8C0F803E08F0CFC0C801019732
:100720000E946805C813C9C0C09399038FE591E082
:100730000E941802809166008093980380E00E94D6
:100740005D01809166008F5F80936600789440E041
:1007500062E080E00E945B006B017C01809166009A
:1007600082508093660040E062E080E00E945B007F
:10077000F894209166002F5F2093660025EFC21643
:1007800021E0D206E104F1042CF4653F71408105BB
:1007900091053CF08BE991E00E94180281E00E94F3
:1007A0005D018DE391E090939F0380939E0382E42B
:1007B00091E09093A1038093A00387E491E090934C
:1007C000A3038093A2038DE491E09093A50380930B
:1007D000A40383E591E09093A7038093A60387E5A4
:1007E00091E09093A9038093A8038BE591E0909307
:1007F000AB038093AA038CEF9FE10E946805C82F8A
:100800008BEF9FE10E946805C43909F459C0C539CE
:1008100009F468C08CEC91E00E941802E0919A0300
:10082000F0919B03EE0FFF1FE256FC4F80819181F8
:100830000E9418028091AE030E94690284EE91E04A
:100840000E9418026091AE0370E090E080E00E9488
:10085000CF00C0919903CC2351F088EF91E00E9422
:1008600018026C2F70E090E080E00E94CF008DE0D5
:1008700092E00E9418020E942D02883709F045C0BC
:100880000E9434028EEB92E00E9418020E942D0218
:1008900088E199E00FB6F894A895809360000FBEA8
:1008A00090936000FFCF23E030E030939B032093D0
:1008B0009A03823009F424CFFACE1092990336CFEE
:1008C00020E032E030939D0320939C03863019F0A2
:1008D0008B3009F09FCF82E090E090939B03809350
:1008E0009A0398CF20E034E030939D0320939C033B
:1008F0008F3041F0843131F0823009F08BCF85E0C8
:1009000090E0EBCF83E090E0E8CF8091C1008F7E54
:100910008093C1008BE392E00E9418028CED0E944C
:1009200053007894109297031092960382E080937C
:10093000AF0380916600845180936600C091660089
:1009400009E210E06091AF0341E081E00E945B00AA
:10095000809166008F5F809366000150110991F7C6
:100960008091AE038093660087ED92E00E941802AA
:1009700081E692E00E94180202EE12E0D9E2DC0F5A
:10098000812C80E8982EA12CB12C6C2F70E090E087
:1009900080E00E94CF00CF5F89E00E94C800F8018C
:1009A000C190D190E190F1908F01C701B6010E94F2
:1009B000CF0089E00E94C800A4E6B0E0A70196013C
:1009C0000E949D05A50194010E947E05CA01B901FE
:1009D0000E94CF0085E20E94C80087ED92E00E944D
:1009E000180284E60E94530084E60E945300DC1340
:1009F000CCCF81E792E00E9418028091C100806113
:100A00008093C1000E942D02C82FD0EDD80FDA309C
:100A1000C0F487ED92E00E9418028C2F0E94C8005B
:100A20001AE00E942D028D3011F08A30E9F481E441
:100A30009FE12091C00027FD14C00197D1F7CD2F71
:100A400002C08837F9F6C093E102C837C1F480913B
:100A5000AE038093E102F8948091E1020E94690262
:100A60000FCF8091C600EBCFC0EDC80FCA30C8F6DB
:100A70000E94C800D19FC00D1124DC2FD2CFC0939B
:100A8000660085E08093AF036091AF0340E080E0B3
:100A90000E945B006091AF0340E080E00E945B0039
:100AA0006091AF0340E080E00E945B00673D7640CC
:100AB0008105910584F28091AE0380936600809158
:100AC000AE038093E1028CE992E00E941802C3CF4A
:100AD000F999FECF92BD81BDF89A992780B5089506
:100AE000262FF999FECF1FBA92BD81BD20BD0FB64A
:100AF000F894FA9AF99A0FBE01960895052E97FB7D
:100B00001EF400940E94950557FD07D00E94A80589
:100B100007FC03D04EF40C94950550954095309504
:100B200021953F4F4F4F5F4F089590958095709559
:100B300061957F4F8F4F9F4F08950E94CA05A59FD3
:100B4000900DB49F900DA49F800D911D11240895C8
:100B5000A1E21A2EAA1BBB1BFD010DC0AA1FBB1FC1
:100B6000EE1FFF1FA217B307E407F50720F0A21B33
:100B7000B30BE40BF50B661F771F881F991F1A94A0
:100B800069F760957095809590959B01AC01BD01CA
:100B9000CF010895A29FB001B39FC001A39F700D24
:100BA000811D1124911DB29F700D811D1124911D75
:100BB0000895F894FFCF0D0A56616C756573207324
:100BC0006176656420746F20454550524F4D20205A
:100BD0000009557365722076616C75650D0A090907
:100BE00009000944656661756C742076616C7565F1
:100BF0000D0A0034382F500038382F500031363865
:100C00002F50003332382F50003634340033324105
:100C100000343441000D0A54657374207374726992
:100C20006E67207072696E746564207573696E6793
:100C30002064656661756C742063616C3A202043A2
:100C4000616E20697420626520726561643F0D0ADF
:100C5000000D0A506F6F7220726573756C743A20C4
:100C6000536561726368696E6720666F7220616C9C
:100C70007465726E61746976652076616C75650D58
:100C80000A000D0A0D0A43616C6962726174696E33
:100C9000672041746D65676120000D0A4E657720FD
:100CA0004F534343414C2076616C756520000D0A1B
:100CB00050726576696F7573207573657220636114
:100CC0006C20000D0A5072657373202778272074FA
:100CD0006F2066696E697368206F7220414F4B20E8
:100CE000666F72206D616E75616C2063616C0D0AB8
:100CF000000D0A4D616E75616C2063616C3A207065
:100D00006C65617365207761697420352073656354
:100D10006F6E64730D0A004F534343414C092045E5
:100D200072726F720D0A000D0A456E746572206E44
:100D3000657720757365722063616C2076616C75D0
:100D400065206F72207820746F2065736361706511
:100D50002E00094368616E67652072656A65637479
:100D600065643A206572726F7220746F6F206772CB
:100D7000656174000D0A416C6C20646F6E653A20E9
:100D8000414B20746F207265706561742E0D0A00EE
:103800000C94341C0C94511C0C94511C0C94511CA1
:103810000C94511C0C94511C0C94511C0C94511C74
:103820000C94511C0C94511C0C94511C0C94511C64
:103830000C94511C0C94511C0C94511C0C94511C54
:103840000C94511C0C94511C0C94511C0C94511C44
:103850000C94511C0C94511C0C94511C0C94511C34
:103860000C94511C0C94511C11241FBECFEFD4E0BA
:10387000DEBFCDBF11E0A0E0B1E0E4EAFFE302C0AB
:1038800005900D92A230B107D9F712E0A2E0B1E0A5
:1038900001C01D92AD30B107E1F70E94361D0C94B6
:1038A000D01F0C94001C982F9595959595959595FE
:1038B000905D8F708A307CF0282F295A8091C0004B
:1038C00085FFFCCF9093C6008091C00085FFFCCFA0
:1038D0002093C6000895282F205DF0CF982F809167
:1038E000C00085FFFCCF9093C6000895EF92FF9231
:1038F0000F931F93EE24FF2487018091C00087FD62
:1039000017C00894E11CF11C011D111D81E4E8168B
:1039100082E4F8068FE0080780E0180770F3E09172
:103920000401F091050109958091C00087FFE9CF5E
:103930008091C6001F910F91FF90EF9008950E9413
:10394000761C982F8091C00085FFFCCF9093C60015
:1039500091362CF490330CF09053892F089597559D
:10396000892F08951F930E949F1C182F0E949F1C4F
:103970001295107F810F1F910895882351F0982F81
:1039800091508091C00087FFFCCF8091C6009923A1
:10399000B9F708951F93182F0E94761C803249F0C2
:1039A000809103018F5F809303018530C1F01F91E7
:1039B00008958091C00085FFFCCF84E18093C6000C
:1039C0008091C00085FFFCCF1093C6008091C0009D
:1039D00085FFFCCF80E18093C6001F910895E091A0
:1039E0000401F091050109951F9108950E94761C2C
:1039F000803241F0809103018F5F80930301853015
:103A000081F008958091C00085FFFCCF84E1809310
:103A1000C6008091C00085FFFCCF80E18093C60086
:103A20000895E0910401F09105010995089510921F
:103A30000A028823D1F090E040E951E02D9A28EE67
:103A400033E0FA013197F1F721503040D1F72D984A
:103A500028EE33E0FA013197F1F721503040D1F7E9
:103A60009F5F981758F380930A0208953F924F92F0
:103A70005F926F927F928F929F92AF92BF92CF92FE
:103A8000DF92EF92FF920F931F93CF93DF9300008B
:103A900083E38093C4001092C50088E18093C10045
:103AA00086E08093C2005098589A259A81E00E943F
:103AB000171D44E1F42E3EE1E32E24E9D22E96E0D8
:103AC000C92E80E1B82EAA24A39401E4902E16E515
:103AD000812EB2E57B2EA0E26A2EF9E45F2EE3E5AB
:103AE0004E2E70E5372E0E94761C8033B1F1813363
:103AF00009F441C0803409F479C0813409F48CC0E0
:103B0000823471F1853409F47BC0803531F182351E
:103B100021F1813511F1853509F48DC0863509F41F
:103B20009DC0843609F4AEC0843709F41BC18537C3
:103B300009F485C1863709F47AC0809103018F5F4B
:103B400080930301853079F6E0910401F09105013D
:103B500009950E94761C803351F60E94F61CC3CF53
:103B600093E18091C00087FFFCCF8091C60099232C
:103B7000A1F39150F6CF0E94761C8032F1F680912D
:103B8000C00085FFFCCFF092C6008091C00085FF89
:103B9000FCCF9092C6008091C00085FFFCCF809240
:103BA000C6008091C00085FFFCCF7092C600809156
:103BB000C00085FFFCCF6092C6008091C00085FFE9
:103BC000FCCF5092C6008091C00085FFFCCF409290
:103BD000C6008091C00085FFFCCF3092C600809166
:103BE000C00085FFFCCFB092C6007DCF0E94761C3E
:103BF000863808F4B2CF0E94761C0E94F61C73CF60
:103C000094E08091C00087FFFCCF8091C60099238B
:103C100009F4A3CF9150F5CF0E94761C8038D1F0E3
:103C2000813861F1823809F499C0883979F080E0EF
:103C30000E94CA1C58CF0E94761C809306010E94E5
:103C4000761C809307010E94F61C4DCF83E00E94F2
:103C5000CA1C49CF82E00E94CA1C45CF0E94761C34
:103C6000803309F486C192E08091C00087FFFCCFC9
:103C70008091C6009923D9F29150F6CF81E00E943D
:103C8000CA1C31CF0E94761C809309020E94761CC8
:103C90008093080280910C028E7F80930C020E9418
:103CA000761C853429F480910C02816080930C028B
:103CB0008091080290910902892B89F000E010E0C0
:103CC0000E94761CF801E85FFE4F80830F5F1F4F54
:103CD00080910802909109020817190788F30E9441
:103CE000761C803209F029CF80910C0280FFD1C070
:103CF0004091060150910701440F551F5093070151
:103D000040930601A0910802B09109021097C9F0F2
:103D1000E8E0F1E09A01BD016E0F7F1FF999FECF37
:103D200032BD21BD819180BDFA9AF99A2F5F3F4F34
:103D3000E617F70799F74A0F5B1F50930701409367
:103D400006018091C00085FFFCCFF092C6008091F3
:103D5000C00085FFFCCFB092C600C5CE80E10E94B6
:103D6000CA1CC1CE0E94761C809309020E94761C58
:103D7000809308028091060190910701880F991F96
:103D800090930701809306010E94761C853409F404
:103D90007AC080910C028E7F80930C020E94761C68
:103DA000803209F0A0CE8091C00085FFFCCFF09258
:103DB000C600A0910802B09109021097B9F1809154
:103DC0000C02182F1170082F0270E0910601F0917B
:103DD00007019F012F5F3F4FB90140E050E01123E1
:103DE000B1F4002339F494918091C00085FFFCCF99
:103DF0009093C6004F5F5F4FCB010196F9014A17C0
:103E00005B0780F4BC012F5F3F4F112351F3F999F9
:103E1000FECFF2BDE1BDF89A90B58091C00085FF5C
:103E2000FCCFE6CF70930701609306018091C0003C
:103E300085FDD9CE8091C00085FFF8CFD4CE0E94F9
:103E4000761C803209F079CE8091C00085FFFCCFCE
:103E5000F092C6008091C00085FFFCCFE092C600C2
:103E60008091C00085FFFCCFD092C6008091C00039
:103E700085FFFCCFC092C6008091C00085FFFCCFBB
:103E8000B092C60030CE80910C02816080930C020B
:103E900085CF809107018823880F880B8A21809322
:103EA0000B028091060190910701880F991F909352
:103EB0000701809306018091080280FF09C080916C
:103EC00008029091090201969093090280930802DA
:103ED000F894F999FECF1127E0910601F0910701BE
:103EE000C8E0D1E08091080290910902103091F46D
:103EF0000091570001700130D9F303E0009357009F
:103F0000E8950091570001700130D9F301E1009369
:103F10005700E89509901990009157000170013001
:103F2000D9F301E000935700E8951395103498F009
:103F300011270091570001700130D9F305E000937B
:103F40005700E8950091570001700130D9F301E165
:103F500000935700E8953296029709F0C7CF1030CA
:103F600011F00296E5CF11248091C00085FFE9CEC3
:103F7000ECCE0E94761C0E94761C182F0E94761CA4
:103F8000112351F0113021F086E00E94CA1CABCD04
:103F900084E90E94CA1CA7CD8EE10E94CA1CA3CD51
:063FA000F894FFCF800041
:00000001FF
