:020000040000FA
:100000000C9434000C9451000C9451000C94530047
:100010000C9451000C9451000C9451000C9451001C
:100020000C9451000C9451000C9451000C9451000C
:100030000C9451000C9451000C9451000C945100FC
:100040000C9451000C9451000C9451000C945100EC
:100050000C9451000C9451000C9451000C945100DC
:100060000C9451000C94510011241FBECFEFD8E026
:10007000DEBFCDBF11E0A0E0B1E0EEE5F2E002C0EE
:1000800005900D92AC33B107D9F721E0ACE3B1E0B4
:1000900001C01D92A135B207E1F70E94D4000C9473
:1000A0002D010C9400001F920F920FB60F92112495
:1000B0002F933F934F935F936F937F938F939F9370
:1000C000AF93BF938091810081111EC010924D01AA
:1000D00010924E0110924F01109250011092850023
:1000E0001092840082E080938100BF91AF919F9134
:1000F0008F917F916F915F914F913F912F910F90D1
:100100000FBE0F901F9018951092810080914C01A6
:100110008F5F80934C018091480190914901A0919B
:100120004A01B0914B0140914D0150914E016091B7
:100130004F01709150012091840030918500840F0F
:10014000951FA61FB71F9058A109B109820F931FD1
:10015000A11DB11D8093480190934901A0934A01CC
:10016000B0934B01C2CF8CEF8093850082EF8093D8
:1001700084008FEF86BB85E080938100B09BFECF2B
:10018000B09A109281001092C1001092C50089E1CE
:100190008093C40082E08093C00088E18093C10016
:1001A00086E08093C2000895A89584B7877F84BFB6
:1001B000809160008861809360001092600080915F
:1001C0007C00806480937C0085B78F7E85BF14B8E7
:1001D00017B81AB88FEF85B988B98BB98CEF9FE142
:1001E0000E942501C82F8BEF9FE10E942501C43991
:1001F00029F0C53951F00E94B3000FC080E092E0B1
:100200009093470180934601F6CF20E034E030938D
:10021000470120934601823071F7E0E0F1E08191DF
:10022000882351F09091C00095FFFCCF8093C600C9
:1002300081E0E83CF80799F78091C00087FFFCCF88
:100240008091C600813449F7FFCFF999FECF92BD66
:1002500081BDF89A992780B50895F894FFCF0D0ACB
:100260005465737420737472696E67207072696E5E
:10027000746564207573696E672064656661756C6A
:10028000742063616C3A202043616E20697420629F
:0A0290006520726561643F0D0A00ED
:107E0000112484B714BE81FFF0D085E080938100F7
:107E100082E08093C00088E18093C10086E0809377
:107E2000C20080E18093C4008EE0C9D0259A86E02C
:107E300020E33CEF91E0309385002093840096BBD3
:107E4000B09BFECF1D9AA8958150A9F7CC24DD24C4
:107E500088248394B5E0AB2EA1E19A2EF3E0BF2EE7
:107E6000A2D0813461F49FD0082FAFD0023811F036
:107E7000013811F484E001C083E08DD089C08234E0
:107E800011F484E103C0853419F485E0A6D080C0E4
:107E9000853579F488D0E82EFF2485D0082F10E0AE
:107EA000102F00270E291F29000F111F8ED06801E7
:107EB0006FC0863521F484E090D080E0DECF843638
:107EC00009F040C070D06FD0082F6DD080E0C81688
:107ED00080E7D80618F4F601B7BEE895C0E0D1E017
:107EE00062D089930C17E1F7F0E0CF16F0E7DF06D8
:107EF00018F0F601B7BEE89568D007B600FCFDCFD4
:107F0000A601A0E0B1E02C9130E011968C91119780
:107F100090E0982F8827822B932B1296FA010C0160
:107F200087BEE89511244E5F5F4FF1E0A038BF0790
:107F300051F7F601A7BEE89507B600FCFDCF97BE46
:107F4000E89526C08437B1F42ED02DD0F82E2BD052
:107F50003CD0F601EF2C8F010F5F1F4F84911BD097
:107F6000EA94F801C1F70894C11CD11CFA94CF0C13
:107F7000D11C0EC0853739F428D08EE10CD085E9AC
:107F80000AD08FE07ACF813511F488E018D01DD067
:107F900080E101D065CF982F8091C00085FFFCCF94
:107FA0009093C60008958091C00087FFFCCF809118
:107FB000C00084FD01C0A8958091C6000895E0E648
:107FC000F0E098E1908380830895EDDF803219F02E
:107FD00088E0F5DFFFCF84E1DECF1F93182FE3DFCA
:107FE0001150E9F7F2DF1F91089580E0E8DFEE27F6
:047FF000FF270994CA
:027FFE00040479
:00000001FF
